:020000040800F2
:1000000040070020D5020008DD020008DF020008DA
:10001000E1020008E3020008E50200080000000019
:10002000000000000000000000000000E7020008DF
:10003000E902000800000000EB020008ED020008E1
:10004000EF020008EF020008EF020008EF020008CC
:10005000EF020008EF020008EF020008EF020008BC
:10006000EF020008EF020008EF020008EF020008AC
:10007000EF020008EF020008EF020008EF0200089C
:10008000EF020008EF020008EF020008EF0200088C
:10009000EF020008EF020008EF020008EF0200087C
:1000A000EF020008EF020008EF020008EF0200086C
:1000B000EF020008EF020008EF020008EF0200085C
:1000C000EF020008EF020008EF020008EF0200084C
:1000D000EF020008EF020008EF020008EF0200083C
:1000E000EF020008EF020008EF020008EF0200082C
:1000F000EF020008EF020008EF020008EF0200081C
:10010000EF020008EF020008EF020008EF0200080B
:10011000EF020008EF020008EF020008EF020008FB
:10012000EF020008EF020008EF020008EF020008EB
:10013000EF020008EF020008EF020008EF020008DB
:10014000EF020008EF020008EF020008EF020008CB
:10015000EF020008EF020008EF020008EF020008BB
:10016000EF020008EF020008EF020008EF020008AB
:10017000EF020008EF020008EF0200080000000094
:10018000EF020008EF02000800F002F800F092F819
:100190000AA090E8000C82448344AAF10107DA45E2
:1001A00001D100F087F8AFF2090EBAE80F0013F0A2
:1001B000010F18BFFB1A43F0010318478C2E0000F3
:1001C000AC2E0000103A24BF78C878C1FAD8520784
:1001D00024BF30C830C144BF04680C6070470000C1
:1001E0000023002400250026103A28BF78C1FBD840
:1001F000520728BF30C148BF0B6070476E2900F01E
:100200004181702900F07782662902F0B685652960
:1002100002F0B385672902F0B085612902F0AF854D
:1002200003681B0A28BF41F08001692900F0EE80B5
:10023000642900F0EB80752900F0E8806F2900F058
:100240000582782900F04382E92900F09F81E429A2
:1002500000F09C81F52900F09981EF2900F00282DD
:10026000F82900F042820368DB0928BF41F08001D1
:10027000632900F06387732900F06887E32900F0A1
:100280007387F32900F07887002070471FB502F0CC
:1002900062FD00F0CBFF04000020002102F00EFA06
:1002A000401C60600020002102F0F2F9E0601FBDF8
:1002B00010B510BD00F08CFF1146FFF7E7FF01F00D
:1002C00045F901F069F803B4FFF7F2FF03BC01F050
:1002D000ADF800000948804709480047FEE7FEE7FF
:1002E000FEE7FEE7FEE7FEE7FEE7FEE7FEE7FEE7E6
:1002F00004480549054A064B704700003D140008B4
:100300008901000840010020400700204003002030
:10031000400300200FB4044910B503AA029800F06E
:10032000C5F810BC5DF814FB000000207047704752
:10033000704710B500F0B2FA006810BD10B5044661
:1003400000F0ACFA046010BD70B504468569006821
:10035000C10601D5302600E02026C00707D070BDB9
:10036000D4E9012130469047206A401C20626D1E6E
:10037000F6D570BD70B5044685690078C00707D111
:1003800070BDD4E9012120209047206A401C2062E2
:100390006D1EF6D570BD09684A0501D540B270479B
:1003A000C905FCD500B2704709684A0501D5C0B23D
:1003B0007047C905FCD580B2704770B50C4605463C
:1003C000012A05D02878800600D5EA69002302E0DA
:1003D000012305E05B1C934202D2E05C0028F9D1C6
:1003E000A869E618C01AA861286A18442862284635
:1003F000FFF7AAFF04E0D5E9012114F8010B9047AB
:10040000B442F8D32846FFF7B5FF70BD2DE9F0419F
:100410000646002410687529314616A510D0FFF74E
:10042000BAFF002802DA404213A507E031688A07C4
:1004300001D512A502E0490704D511A5012401E068
:10044000FFF7B2FF00210A2206F1240709E0B0FB02
:10045000F2FCB0FBF2F302FB1C003030785418467B
:10046000491C0028F3D123462A463046BDE8F04116
:1004700000F05DBA000000002D0000002B0000001D
:100480002000000011680268006A530501D5087059
:100490000AE0D30501D5088006E0130603D5C2178C
:1004A000C1E9000200E0086001207047074B70B509
:1004B0000D467B4400F025FE0446284600F0EAF98C
:1004C00010B14FF0FF3070BD204670BDFB0F000033
:1004D0002DE9FF5F15468A460446DFF8AC80F844F4
:1004E0000027D8E900103E46CDE9001010E03AF8A8
:1004F00016106A4602A800F043FE411C07D021787E
:10050000890603D5E269391891420DD80744761C53
:100510002078800602D5E069B84205DDAE42E6DB10
:100520003AF816000028E2D1A069C01BA06120465D
:10053000FFF70AFFD8E90010CDE90010002017E00E
:100540003AF818106A4602A800F01AFEB0F1FF3F10
:1005500081460BD000250DF1080B05E0D4E90121FF
:100560001BF8050090476D1C4D45F7D308F10100BD
:10057000B0428046E4DB206A384420622046FFF720
:10058000F9FEBDE8FF9F0000E22900002DE9F041DF
:100590008046D21D22F007020025D2E90002F5298B
:1005A00015A614D0011E72F1000106DA0023D0EB6B
:1005B000030063EB020211A608E0D8F800108B07D5
:1005C00001D50FA602E0490701D50EA60125114667
:1005D000002408F1240704E000F064F930323A55B1
:1005E000641C50EA0102F7D12B46324621464046B0
:1005F000BDE8F04100F09BB9000000002D000000B4
:100600002B0000002000000030B4002100F1240481
:1006100008E002F00705D208303542EA4372DB08F1
:100620006554491C52EA0305F3D10468002310A263
:10063000250708D504F020040C4304D0C469012325
:100640000CA2641EC46130BC00F071B910B5044640
:1006500021461068FFF7A8FE02462046BDE810407C
:100660000023D1E7D21D22F00701D1E90023CBE717
:100670000000000030000000F0B40D4601880905BC
:1006800002D5214C7C4402E01F4C7C440E340021F6
:1006900000F1240608E002F00F071209E75D42EAC4
:1006A00003721B097754491C52EA0307F3D10278FD
:1006B0000023120704D5702D06D009B1022311348E
:1006C0002246F0BC00F033B901231034F8E770B5CE
:1006D00004460D4621461068FFF766FE024629468D
:1006E0002046BDE870400023C6E7D21D22F0070374
:1006F000D3E90023C0E70368126843F020030360D6
:100700000823C3610023B7E7442800002DE9F05F08
:10071000894604464FF0000ADFF874B1FB44C0F884
:1007200020A02046E1688847002874D0252806D0FC
:10073000D4E901219047206A401C2062F1E700269D
:100740005F462046E16888472028054607DB312DB3
:1007500005D2781910F8200C08B10643F1E7B0076C
:1007600001D526F00406C4F81CA00027C4F818A080
:100770002A2D09D0284601F083FF38B304EB8708FF
:10078000303DC8F8185019E059F8041B204604EB16
:1007900087029161E1688847012F054618D1E06919
:1007A000002820DA26F020061DE0D8F8180000EB1B
:1007B000800005EB40003038C8F818002046E1689A
:1007C0008847054601F05CFF0028EED1012F0AD0D2
:1007D0002E2D08D12046E16888477F1C0546022F50
:1007E00046F02006C4DBA069002803DA404246F048
:1007F0000106A061F00701D026F010066C2D0BD089
:10080000682D09D04C2D39D06A2D35D0742D35D0B6
:100810007A2D33D016E038E0E1682F46204688472D
:10082000B842054609D16C2F26D04FF48060E168AC
:10083000064320468847054604E06C2F1AD04FF443
:10084000807006430DB3A5F14100192802D8203568
:1008500046F400664A462946204626604E46FFF783
:10086000CDFC80B101280BD0F61D26F0070000F169
:10087000080956E74020E4E78020D8E70020D6E7C3
:1008800006F104094DE7284652E7206ABDE8F09FCB
:10089000D4270000007B00F08000704700487047BC
:1008A000C800002030B5B0F10A0271F100034FEA30
:1008B000900E4EEA817EB0EB0E0061EB91014FEAA3
:1008C000101E4EEA017E10EB0E0041EB11114FEAB3
:1008D000102E4EEA016E10EB0E0041EB11214FEA93
:1008E000104E4EEA014E10EB0E0041EB1141401844
:1008F00041F100014FEAD00040EA41704FEAD101D6
:100900004FEA810444EA907410EB800544EB010443
:100910006D1944EB0404521BA3414FF0000348BF80
:100920000A3200D530BD401C41F1000130BD2DE937
:10093000F0470D4699469246044600F124080168A6
:10094000880604D5E06921F01001216000E0012053
:10095000A84201DD471B00E00027A1697A1902EBDC
:100960000900081AA0612078C00602D42046FFF7CB
:10097000EBFC002608E0D4E901211AF806009047B4
:10098000206A401C761C20624E45F4DB2078C006AD
:100990000AD52046FFF7D8FC06E0D4E90121302033
:1009A0009047206A401C2062381EA7F10107F4DC42
:1009B00007E0D4E9012118F805009047206A401C9F
:1009C0002062281EA5F10105F3DC2046FFF7D2FCCA
:1009D0002078000602D50220BDE8F0870120FBE761
:1009E0002DE9FF4F0C461E464FF0FF378BB0D2E982
:1009F0000001DDF860800A908A46C1F30A5505B906
:100A00003D46002108464FF00000BAF1000F00F407
:100A1000400005DA00EB80004FF4400101EA50008D
:100A20004FEA9059B9F1010F00DDB9460A9850EA32
:100A30004A000ED044F61050A5F2FF3545432F145E
:100A4000B8F1000F1ED07542291E1EDDC9F100024B
:100A50001CE0B8F1010F4FF0000001D0302103E09D
:100A6000F24305E02154401CB042FBDB304600223B
:100A7000002121540B99C1F80880C1E900200FB072
:100A8000BDE8F08FBD1B6D1CDEE74A4600DA694207
:100A900006A800F00FFC06AB93E8070003AB83E861
:100AA000070050460A9900F09FFE8DE80700A0F568
:100AB00000501F3800900398002D0ADD42F21F01FC
:100AC0004A460844002303A90390684601F008F948
:100AD00009E0A0F500504A461F38002303A90390FF
:100AE000684601F012F98DE807000004000C03D0FD
:100AF0004FF0FF30410800E01046B8F1000F03D07E
:100B00000022009215461EE0751E05D4FFF7CAFEAE
:100B1000303262556D1EF9D5B3460122084302D02A
:100B200000227F1C04E02078302801D100227F1EA3
:100B3000002A099784D01DE0112D07DAFFF7B2FED5
:100B4000303262556D1C50EA0102F5D1084302D0E3
:100B50000098C8B10EE00021681E05E0235C625CCD
:100B600063542254401E491C8142F7DBAB46A81B4C
:100B7000401E0990002004F80B000B98099AC0F859
:100B80000880C0E9002B7AE711264FF0000857E7EC
:100B90002DE9F04F88460446D21D22F0070191B09E
:100BA000D1E90001CDE90A0101F0E6F902460B980E
:100BB000C00F01D02D2007E02068810701D52B2030
:100BC00002E0202101EAC000032A099001D0072A8F
:100BD00005DB03464146204600F02CFB0BE1207864
:100BE000800601D5E06900E00620B8F1650F814676
:100BF00006D0B8F1660F18D0B8F1670F70D131E0A8
:100C00000020B9F1110F009001DB112301E009F17F
:100C100001030AAA01A90CA8FFF7E2FEDDE90C70A6
:100C2000002609F10105834647E001204B4600906C
:100C30004FF000470AAA01A90CA8FFF7D1FEDDE991
:100C40000DB00C995D46002610B909F101000D1890
:100C5000B9EB050003D4C0F1FF3609F10105A5EB9E
:100C600009002BE0B9F1010F01DA4FF00109002072
:100C7000B9F1110F0090484601DD112300E0034651
:100C80000AAA01A90CA8FFF7ABFEDDE90C704D46DE
:100C900000268346207800070AD4AB4500DA5D467B
:100CA00001A8012D04DD411911F8011C302907D0DC
:100CB0004F4502DA17F1040F04DA012082460FE0F3
:100CC0006D1EEEE7002F02DCED1B3E4403E0781CB6
:100CD000A84200DD7D1CB81B00F1010A4FF000475F
:100CE0002078000703D4AA4501DB4FF0FF3A00212A
:100CF000B7F1004F0DF143088DF8431024D00220C6
:100D00002B23002F01DA7F422D230A21021EA0F19E
:100D1000010000DC5FB197FBF1FC97FBF1F201FBF6
:100D20001C7C17460CF1300C08F801CDEEE7A8F159
:100D3000010003702188090501D5452100E06521E6
:100D4000A0F1010800F8011C09980FA9A1EB080700
:100D5000FF1D00B10120411901EBEA70A16938447F
:100D6000081A401EA0612078C00602D42046FFF772
:100D7000EBFA099828B1D4E901219047206A401C78
:100D800020622078C00622D52046FFF7DDFA1EE05B
:100D9000002E04DBB34502DD01A8805D00E03020B9
:100DA000D4E901219047206A401C2062761CAAF1F8
:100DB00001005FEA000A0AD100F038FAC068016851
:100DC000405CD4E901219047206A401C2062281E23
:100DD000A5F10105DCDC07E0D4E9012118F8010BDD
:100DE0009047206A401C2062381EA7F10107F3DCFF
:100DF0002046FFF7BFFA032011B041E62DE9F04F7E
:100E000004460D46D21D22F0070089B0D0E90097B4
:100E10004846394601F0B0F80246F80F01D02D23BC
:100E200007E02068810701D52B2302E0202101EA99
:100E3000C0038DF820300BB1012000E00020032A10
:100E4000824601D0072A04DB2946204600F0F2F949
:100E50003FE12078800601D40D2500E0E569C7F365
:100E60000A560D2D49DA00214FEA175B08464FF06C
:100E70000000002F00F4400007DA00EB80004FF480
:100E8000400100EBD07001EA60008115012901DD0D
:100E90004FF0FF3100224FEA850CBCF1180F06D34A
:100EA0001346ACF118004FF08052C24003E04FF4FB
:100EB000801323FA0CF30CF10C0CBCF1200F04D3BB
:100EC000ACF1200C09FA0CF001E007FA0CF0002953
:100ED0004FF0004801DD18B90FE00ED140450CD3AA
:100EE00019EB02095F4121B9404502D19F4329EA2C
:100EF0000209BBEB175F00D0761C2088000502D5E5
:100F00007B48784402E07A487844193808AA3023AC
:100F100002F80A30037C0AF10101002E0AF1020AEC
:100F200053546A4602DC4FF0300101E04FF03101CA
:100F30004FF001088DF8001002D0A6F2FF3603E052
:100F400059EA470100D06B4E002D02DC21780907D9
:100F500004D54FF002082E218DF80110C44600215F
:100F60000BE0C7F303433F01C35C491C6D1E02F84D
:100F70000830052908F1010801DA002DF1DC002113
:100F80000CE000EB1973491C1B786D1E082902F850
:100F900008304FEA091908F1010801DA002DF0DCE8
:100FA00021688B0602D516E0A8F10108E04505DDB1
:100FB00002EB080313F8013C302BF5D0B8F1000F19
:100FC00009DD02EB080313F8013C2E2B03D10907BE
:100FD00001D4A8F10108002D05DD3E2102F808101A
:100FE0006D1E08F10108407C002E02F8080008F18F
:100FF000010804DA2D20764202F8080002E02B20D6
:1010000002F808000A214FF47A70864208F10108BC
:101010000BDB96FBF0F3303302F8083096FBF0F36D
:1010200008F1010800FB136601E0642E0CDB64206C
:1010300096FBF0F3303302F8083096FBF0F308F13A
:10104000010800FB136601E00A2E06DB96FBF1F0B7
:10105000303002F8080008F1010896FBF1F001FBBE
:101060001060303002F80800A16908F1010808EBAF
:10107000050202EB0A00081AA0612078C00602D41B
:101080002046FFF761F9216A08AE01EB0A002062F1
:1010900004E0D4E9012116F8010B9047BAF1010AE6
:1010A000F7D22078C00602D52046FFF74DF96E46EC
:1010B00009E016F8010B3E280FD0D4E90121904732
:1010C000206A401C2062B8F10108F2D22046FFF7E6
:1010D00051F909B00320BDE8F08F206A284420624E
:1010E00003E0D4E90121302090476D1EEBD3F8E7EF
:1010F0001220000002FCFFFF01694A1C026108780F
:10110000704700B58FB0CDE9013100210591054947
:101110007944CDE9031011466846FFF7F7FA0FB09E
:1011200000BD0000E5FFFFFF10B5436913B1AFF349
:10113000008001E0FFF741F9012010BD127800F1B5
:1011400024010A7000224A700122EDE711684FF075
:10115000FF32E9E710B5436913B1AFF3008001E056
:10116000FFF7B6F9012010BD128800F12401828436
:101170000022C2840122EDE711684FF0FF32E9E757
:101180002DE9F04116460C46054600F047F8036885
:1011900093F80101012807D0FF2C12D8185D80B107
:1011A00001202C70BDE8F081D3F8070132462146BA
:1011B00003F20713C7182846BC46BDE8F0410023D8
:1011C00060474FF0FF30EDE700487047C80000204F
:1011D0007546FFF7F9FFAE4605006946534620F015
:1011E0000700854618B020B5FFF782F8BDE820401B
:1011F0004FF000064FF000074FF000084FF0000BD3
:10120000AC46ACE8C009ACE8C009ACE8C009ACE841
:10121000C00921F007018D467047000010B500F0AD
:1012200005F8001D10BD00BF951400000048704770
:10123000E80000202DE9F0411F460446032601681E
:10124000072A01F4006004DB08B116A505E016A525
:1012500003E008B115A500E015A521F010002060FD
:10126000A069C01EA0610FB1401EA0612046FFF71B
:101270006BF84FB1D4E9012138469047206A401CF1
:101280002062C01C206206E0206AFAE7D4E901214E
:1012900015F8010B9047761EF8D22046FFF76AF842
:1012A000BDE8F0814E414E006E616E00494E460031
:1012B000696E66002DE9F047814616468AB03548CA
:1012C00078440DC88DE80D0032487844801C03AC8A
:1012D0000DC884E80D0041F69B300844372190FB8F
:1012E000F1F290FBF1F5A5F1800501FB12041B3C26
:1012F00002D56442012000E00020DFF898A080467B
:101300000027FA44AAF1BE0A0EE0E0070AD03246EE
:10131000684607EB470101230AEB810100F0F5FC69
:101320008DE8070064107F1C002CEED1194F7F441C
:10133000AE3F19E0E80715D007EB04100DF1180ACD
:1013400090E80E008AE80E00C068F04201D19819BA
:1013500008903246012306A903A800F0D6FC03AB8F
:1013600083E807006D10641C002DE3D14FF00103EA
:1013700032466946B8F1000F03A802D000F0B0FC75
:1013800001E000F0C2FCC9E90001C9F808200AB078
:10139000BDE8F087E41C000010B50446AFF3008000
:1013A0002046BDE81040FEF78EBF000000000000A0
:1013B00030B44FF0013C50F8042B51F8043BCCFA08
:1013C00052F4D51A20D1FCB950F8042B51F8043B43
:1013D000CCFA52F4D51A17D1B4B950F8042B51F8FD
:1013E000043BCCFA52F4D51A0ED16CB950F8042B48
:1013F00051F8043BCCFA52F4D51A05D1002CDAD0BE
:1014000030BC4FF00000704729BAB1FA81F111F0F9
:101410001801D1F120008440F2D1CA40CB4012F033
:10142000FF0213F0FF0330BCD01A704701491820A7
:10143000ABBEFEE726000200704700004EF6885162
:10144000CEF20001086840F47000086070470000A8
:1014500082B0019000910198009900EB5100B0FB1F
:10146000F1F002B07047000080B584B08DED020B42
:101470008DED001B9DED021B9DED000B51EC110B42
:1014800053EC102B01F008FB41EC100B51EC100B4E
:1014900001F02AF900EE100AF0EE000A00F098FDC3
:1014A00010EE100A01F0E6FB41EC100B04B080BD19
:1014B00080B582B001900091019800F07FF9019809
:1014C00002B080BDD0B502AF88B0D7F810C0D7F851
:1014D0000CC0D7F808C047F80C0C47F8101C47F8A8
:1014E000142C47F8183C57F8140C694647F81C1C94
:1014F0006946A1EBC00247F8242C954647F8200C1A
:1015000057F80C0C57F8101C57F8143C57F818CC27
:1015100082B0EE46CEF800C000F0E6F857F8240C92
:1015200002B057F8141C3A69BB68D7F80CC082B0F7
:10153000EE46CEF800C000F0D7F802B057F81C0C09
:101540008546A7F10804A546D0BD000080B586B049
:101550000020059000F0ECF840F22811C2F20001E2
:1015600003916846816040F22001C2F200014160AF
:101570000322026040F2B000C2F2000040F26803B1
:10158000C2F200031146FFF79DFF039890ED000B98
:1015900053EC102B43F21300C0F60000FEF7BAFE26
:1015A000039890ED000B40F20800C2F20000049096
:1015B00090ED001BFFF758FF53EC102B42F6D37051
:1015C000C0F60000FEF7A6FE039890ED020B53EC68
:1015D000102B42F6FB70C0F60000FEF79BFE03994D
:1015E000049891ED020B90ED021BFFF73DFF53ECC9
:1015F000102B42F6C070C0F60000FEF78BFE039879
:1016000090ED040B53EC102B43F22C00C0F60000BD
:10161000FEF780FE0399049891ED040B90ED041BF6
:10162000FFF722FF53EC102B42F6E770C0F60000E4
:10163000FEF770FEFFE7FEE780B58CB0DDF838C03E
:101640000B900A91099208930A9805900020079040
:10165000FFE707980899884243D2FFE700200690E9
:10166000FFE706980A99884236D2FFE7059B0B9858
:10167000069A00EBC20090ED001B0E9807994B43B1
:1016800000EBC30000EBC20090ED000B099800EBEB
:10169000C100039090ED002B8DED002B51EC110B50
:1016A00053EC102B01F0FAF89DED000B41EC110BFF
:1016B00051EC110B53EC102B01F048F80246039843
:1016C00004920A46049942EC101B80ED000BFFE7E0
:1016D000069801300690C4E7FFE7079801300790AD
:1016E000B7E70CB080BD000080B586B0DDF820C043
:1016F0000590049103920293029B04990598039A22
:10170000DDF820C0EE46CEF800C0FFF795FF06B02A
:1017100080BD000080B584B00390029101920298D0
:101720000199FFF795FE0399886004B080BD000021
:1017300080B582B043F63001C4F20201086840F07F
:10174000010008600021C4F20201086840F4201082
:10175000086041F20C01C4F201010191086820F413
:101760008050086041F21001C4F20101086820F4C1
:10177000405008602421C4F20201086840F4EE6081
:10178000086043F64401C4F20201086840F010000A
:10179000086041F20000C4F2010042F20041C0F2D0
:1017A000F4014FF41652FFF7B5FF01990C200860C1
:1017B000086840F40050086002B080BD81B000901D
:1017C000FFE741F20000C4F20100006800060028B3
:1017D00001D4FFE7F5E79DF8000041F20401C4F2EF
:1017E0000101086001B070475FEA400C08BF91F04A
:1017F000000F4FEA8C234FEAC12243EA51514FEACE
:101800001C5018BF00F5F0404FEA300018BF41F0FF
:1018100000415FEA6C5C00F02980BCF1FF3F08BF2B
:1018200040F080407047130C06BF12044FF0100CBC
:101830004FF0000C130E04BF12020CF1080C130F32
:1018400004BF12010CF1040C930F04BF92000CF1C1
:10185000020CD30F04BF52000CF1010C11464FF0E3
:101860000002A0F11F00A0EB0C00704711F0004F28
:1018700008BF704731F000413FF4D5AF0B0C06BFF5
:1018800009044FF0100C4FF0000C0B0E04BF0902BE
:101890000CF1080C0B0F04BF09010CF1040C8B0FA9
:1018A00004BF89000CF1020CCB0F04BF49000CF1FE
:1018B000010CCCF1200322FA03F341EA030102FAFE
:1018C0000CF2A0EB0C0000F10100704723F07F4701
:1018D00020F07F4C80EA030000F00040ACEB0703EF
:1018E00003F57C5303F1FF032DE9804909B44FEA66
:1018F000144324EA03484FEA154B25EA0B4E0FF236
:10190000042606EB13273E7803FB0667C7F500079E
:1019100007FB06F64FEAD64606F102064FEA5437B1
:1019200007FB066CCCF1005C4FEA1C472CEA074C25
:101930000CFB06F507FB06F404EB15464FEA96167A
:1019400049085FEA320234BF00204FF000404FEAFE
:10195000D13706FB07FC4FEA1C4C0CFB0BF7D21BE4
:1019600003FB0CF761EB07010CFB0EF7B0EB074034
:1019700072EB17420CFB08F734BFA2EB0742B2EB45
:10198000074261EB17414FEA0C444FEA910706FB0F
:1019900007FC4FEA1C4C0CFB0BF7B0EBC74072EB9B
:1019A000573203FB0CF734BFA2EBC742B2EBC7427E
:1019B00061EB57310CFB0EF7B0EBC70072EB5772BF
:1019C0000CFB08F734BFA2EBC702B2EBC70261EB16
:1019D00057714FEA816141EA92114FEA826242EA0D
:1019E00090124FEA806004EBCC04039F4FEAD1379A
:1019F00006FB07FC4FEA1C4C0CFB0BF7D21B03FB4E
:101A00000CF761EB07010CFB0EF7B0EB074072EB34
:101A100017420CFB08F734BFA2EB0742B2EB0742B8
:101A200061EB17414FEA8C5504EB9C244FEA910778
:101A300006FB07FC4FEA1C4C0CFB0BF7B0EBC74056
:101A400072EB573203FB0CF734BFA2EBC742B2EB89
:101A5000C74261EB57310CFB0EF7B0EBC70072EBDE
:101A600057720CFB08F734BFA2EBC702B2EBC702F8
:101A700061EB57714FEA816141EA92114FEA82624C
:101A800042EA90124FEA806015EB4C2544F10004C5
:101A90004FEAD13706FB07FC4FEA1C4C0CFB0BF757
:101AA000D21B03FB0CF761EB07010CFB0EF7B0EB4D
:101AB000074072EB17420CFB08F734BFA2EB07425A
:101AC000B2EB074261EB17414FEA813141EA9241A3
:101AD0004FEA823242EA90424FEA80304FEA0C7677
:101AE00015EB1C1544F1000448EA03434EEA0B4889
:101AF0004FF0000EB2EB080C71EB030724BF6246F7
:101B000039464EEB0E0E4FF0000B00185241494182
:101B10004BEB0B0BB2EB080C71EB03077BF1000BEB
:101B200024BF624639464EEB0E0E4FF0000B0018F4
:101B3000524149414BEB0B0BB2EB080C71EB030725
:101B40007BF1000B24BF624639464EEB0E0E51EA84
:101B5000020718BF46F0010616EB0E7655F100029B
:101B600054F1000103D5BDE88901BDE80088BDE856
:101B70008901BDE80048B619524141EB0101A3F1CA
:101B80000103704780807F7E7D7C7B7A79787776D1
:101B900076757473727171706F6E6E6D6C6C6B6A4A
:101BA0006A696868676666656464636362616160E8
:101BB000605F5F5E5E5D5D5C5C5B5B5A5A59595865
:101BC00058575756565555555454535352525251CF
:101BD000515050504F4F4F4E4E4D4D4D4C4C4C4B25
:101BE0004B4B4A4A4A49494948484847474747466C
:101BF00046464545454444444443434343424242A8
:101C0000424141419C46002B30D477002BD04FEA13
:101C100037071CB503B44FF010004FF01001BAF1B4
:101C2000000F06D0BCF1000FDCBF40F0080040F010
:101C300008014FF000000FBCBDE810400BF1010B94
:101C4000BBF1010F08BF5FEA170722BF12F10102C3
:101C500011F101014FF0004143F1000300F0004099
:101C600043EA00007047F9D35708D0E746EA064632
:101C70004FEA164613F1400F1FDD13F1200FDFBFAF
:101C800016430A46002120335B42BED0C3F1200731
:101C900046EA06464FEA164602FA07F746EA0706FC
:101CA00022FA03F2C3F1200701FA07F742EA07021A
:101CB00021FA03F14FF00003A7E746EA020646EADD
:101CC00006464FEA164646EA0106BCBF46EA064605
:101CD000360C4FF000034FF000024FF0000194E784
:101CE0002DE9804C70B49A46934691E8380007C8B5
:101CF00031EA400C48BF34EA430C03D5FFF7E6FD58
:101D0000FFF780FFF0BCBDE8008C2DE9804C70B47B
:101D10009A46934691E8380007C810F0804F08BFF4
:101D200013F0804F03D100F005F8FFF76BFFF0BC14
:101D3000BDE8008C20F07F4723F07F4C80EA030051
:101D400000F0004007EB0C03A3F57C53A3F1FE0366
:101D500092F0000F00F0B38095F0000F00F0778054
:101D60002DE901494FEA114021EA00484FEA1446A3
:101D700024EA064700FB06FC08FB06F607FB08F80A
:101D800018EB06484CEB164C00FB07F718EB07481E
:101D90004CEB17404FEA124B22EA0B4E4FEA154626
:101DA00025EA06470BFB06FC0EFB06F607FB0EFEBC
:101DB0001EEB064E4CEB164C0BFB07F71EEB074ECB
:101DC0004CEB174B18EB0B0840F1000018EB0E0B17
:101DD00058EB000840F100008F1A4FF000014FF05F
:101DE00000063CBFC943661B14BFB5EB040C0021C1
:101DF0003CBFC943F61B4FEA174427EA04454FEAA4
:101E00001C472CEA074C04FB076205FB07F70CFB99
:101E100005F616EB074642EB174204FB0CFC16EBEB
:101E20000C4642EB1C421BEB060658EB02024141FA
:101E30004EEA8E0E46EA9E0601D5BDE80189B61926
:101E4000524141EB0101A3F10103BDE801894FEAD1
:101E5000144524EA05464FEA114721EA074C05FBE1
:101E600007F406FB07F70CFB06F111EB074144EB07
:101E7000174405FB0CFC11EB0C4144EB1C444FEAEE
:101E8000124722EA074C05FB07F206FB07F70CFB9B
:101E900006F616EB074642EB174205FB0CFC16EB69
:101EA0000C4642EB1C456A1854F1000148BF7047CC
:101EB000B619524141EB0101A3F10103704795F0BE
:101EC000000F37D04FEA114221EA02464FEA144789
:101ED00024EA074C02FB07F106FB07F70CFB06F4AC
:101EE00014EB074441EB174102FB0CFC14EB0C44D0
:101EF00041EB1C414FEA154725EA074C02FB07F569
:101F000006FB07F70CFB06F616EB074645EB1745F5
:101F100002FB0CFC16EB0C4645EB1C42121951F16E
:101F2000000148BF7047B619524141EB0101A3F1CE
:101F3000010370474FEA144524EA05464FEA11476A
:101F400021EA074C05FB07F106FB07F70CFB06F23D
:101F500012EB074241EB174105FB0CFC12EB0C4264
:101F600051EB1C414FF0000648BF7047921841EBFF
:101F70000101A3F10103704703B4019841000098E7
:101F800050EAC12018BF04204A0D18BF40F00100DC
:101F900040F2FF72B2EB515F08BF40F0020001282F
:101FA00008BF052002B070474100080218BF042096
:101FB0000A0E18BF40F001004FF07F4232EA0101E3
:101FC00008BF40F00200012808BF0520704700004C
:101FD00010B510EE100A2DED068BB7EE001A10EEBC
:101FE000901AB0EE418A0022A0F5000CDFEDFE9AB7
:101FF0004FF00073BCF1FE4F4FF07F4403EB410CF8
:1020000080F0B481BCF1804FC0F02082F7490144D8
:102010009FEDF73AB1F5005F40F2D48200F58021E0
:10202000CB0C03F00F0101EE901AC3F307137F3BB3
:10203000A0EBC350B8EEE12A00EE100A1A44DFED1F
:10204000ED2AF0EE411A42EE221AF0EE613A70EEFD
:10205000232A30EE632A12EE900A00F500606FF337
:102060000B0001EE900A73EEE13A33EE804AC1EEC6
:10207000223A22EE230A10EE100A00F500606FF3F8
:102080000B0000EE100A00EE612A00EE442A62EE18
:10209000232A70EE221A21EEA12ADFEDD73A02EEB2
:1020A000233A23EE023A20EE012A22EE811A03EEB1
:1020B000211A32EE010A10EE100A00F500606FF3EB
:1020C0000B0000EE100A72EE401A31EE812A9FEDED
:1020D000CB1A60EE011A9FEDCA1A20EE011A9FED8D
:1020E000C90A02EE001A31EE810A10EE100A00F55C
:1020F00000606FF30B0000EE100AC34871EEC01AC7
:1021000031EE812A784400EBC10090ED003AD0ED29
:10211000011A100101EE100AF8EEC12A32EE211A5E
:1021200031EE001A31EE031A31EE221A11EE100AC6
:1021300000F500606FF30B0009EE100A39EE621A29
:1021400031EE431A31EE400A30EE610A32EE40AA17
:1021500010EE900A002100F500606FF30B0008EE0E
:10216000900A084670EEE8AA4FF0000029EE280A0F
:1021700000F00C01F0EEC00A10EE900AB0F18B4FA7
:102180000DDD10EE900AB4EB400F08D310EE100AEC
:102190004FF08B4262F31E0008EE900A13E069EEE6
:1021A0002A0A38EEAA1A4AEE010A30EE201A11EE77
:1021B000100A00F500606FF30B0008EE900A30EE95
:1021C000680A70EE209A0C204FF0000038EEA90A41
:1021D000B5EEC00AF1EE10FA34BFFEEE000AF6EEDC
:1021E000000A30EE800ABDEEC00A10EE100A01119E
:1021F00000EE101AF8EEC00A00EE100AB8EEC00A9F
:1022000038EEC00A30EE290ADFED801A9FED801A01
:1022100000EE211ADFED7F1A7F4900F00F0040EE3B
:10222000011A21EE800A794401EB800191ED001A38
:102230007A49794401EB8001D1ED001A784901EE29
:10224000801A794401EB8000764990ED000A31EE66
:10225000001AB0EEE00A10EE100A884215DA10EE0D
:10226000100AB4EB400F10D39FED6F0A30EE800AD6
:10227000DFED6E0A20EE200A68EE010ABDEC068B47
:10228000BCEEC00A20EE200A10BD10EE100A68490C
:10229000884243DA10EE100AB4EB400F3ED3BDEE95
:1022A000E00A68EE010A10EE100A00EBD07251103D
:1022B000C90501F17E5100EE101AA0EB6200C005C5
:1022C00060EE200A00F17E5000EE100A60EE808A77
:1022D00018EE900AB4EB400F0FD10220FEF72EF853
:1022E00000F0BEF910EE101A18EE100ABDEC068BC5
:1022F00061F31E0000EE100A10BD18EE900A4000B7
:1023000011D018EE900AFFF74FFE042808BF00F026
:10231000AFF9B0EE680ABDEC068B10BDF5EEC00A51
:10232000F1EE10FA0FD20220FEF708F800F0A0F943
:1023300010EE101A18EE100ABDEC068B61F31E00A9
:1023400000EE100A10BD0220FDF7F8FF00F088F93A
:1023500010EE101AB0EE480A10EE100ABDEC068B13
:1023600061F31E0000EE100A10BD00BFBCF1804FEB
:102370006CD300BF00F1FF43B3F1FE4F24D200BF86
:10238000B0EEC00A10EE100AC1F3C7537F2B0DDB6D
:10239000972BBFF63BAEC3F196034FF0010C0CFA3E
:1023A00003F3A3F1010C1CEA010F08D00120FDF793
:1023B000C5FFBDEC068BBDE8104000F049B90B42EB
:1023C00018BFBFEE008A21E643001CBF4FF08073A8
:1023D000B3EB400F34D96FF01A02DFED161A20EE7E
:1023E000210A10EE100A27E000000000001080C053
:1023F000ABAAAA3E0000803D7EE24C3E00B03842CF
:10240000D49AB8BB3BAA38427C0C0000FC59633715
:10241000C9FF753A1872313D1A0C00004E0C0000CD
:10242000BE0B00000000FC420000FE420000004B1A
:10243000000040430000004D10F0004FA0D1E5E542
:10244000A0F50003B3F1FE4F21D2DFE503EB41031A
:10245000B3F1007F11D3F5EEC00AF1EE10FA05D109
:10246000430018BFB4EB400F76D883E701F000417A
:1024700041F0FC5100EE901A7CE7B3F1807F06D268
:1024800010EE903AA3F5000300EE903A72E720F0C8
:1024900000426FF0FF4C604C02EB0C03A34210D3E0
:1024A00021F000439C44A4450BD3B0F17E5F18BFDC
:1024B0005FEA410C50D0B2F1FF4F98BFB3F1FF4F2C
:1024C00005D9BDEC068BBDE8104000F0BDB8B0F1F9
:1024D000FF4F0FD0C1F3C7527F2A09DB972A11DAC9
:1024E000C2F19602012303FA02F2531E0B4205D0F9
:1024F000002208E011F0004F55D128E00A4218BF31
:10250000012200D1022210F5000F13D028B3B0F140
:10251000004F26D010F1814F4FD04FF0FE42B2EB6A
:10252000400F94BF01200020012202EBE17188429C
:1025300039D10CE011F0004F02D0012A38D032E03E
:10254000012A02BF9FED350ABDEC068B10BD9FED41
:10255000340ABDEC068B10BD2FE011F0004F0CD1FA
:1025600021E0B1F1FF4F1ED011F5000F05D011F0A1
:10257000004F15D00AB1012A08D00220FDF7DEFE77
:10258000BDEC068BBDE8104000F054B80220FDF70A
:10259000D5FE00F04FF8BDEC068BB1EE400A10BD41
:1025A0000AB1012A04D0B0EE690ABDEC068B10BD59
:1025B000BDEC068B9FED1B0A10BDBDEC068BB7EE84
:1025C000000A10BD30EE410AB5EE001A9FED172A41
:1025D00000EE413AB6EE001A60EE001A00EE431A21
:1025E00061EEC11A9FED101A20EE011A20EE020AC8
:1025F0009FED0F2A01EE820A71EE001A11EE900A89
:1026000000F500606FF30B0009EE100A31EE491A75
:1026100031EE00AA9CE50000FFFF3F00000080FFB4
:102620000000807F0000008000B0B841D49A38BB21
:102630003BAAB841DFED030AB7EE001A81EE200A8B
:10264000704700000000000030EE200A70470000D4
:10265000DFED020A80EEA00A7047000000000000D3
:102660009FED020A20EE000A704700000000007093
:102670009FED020A20EE000A7047000000000010E3
:1026800030380A2801D2012070470020704700002E
:1026900010B500290AD00878002807D005487844EA
:1026A000FEF786FE002801D0002010BD02487844C5
:1026B00010BD0000CA090000C209000010B50029C1
:1026C0000AD00878002807D005487844FEF770FE45
:1026D000002801D0002010BD0248784410BD000041
:1026E000BA090000B209000021F0004201F00043E5
:1026F000A2F16052B2F5801F28BFD2F17F6C0BD9D6
:102700005FEA001C43EAC20242EB507018BF7047F8
:1027100028BF20F001007047B2F5801FBCBF1846EB
:1027200070474FEA410C1CF5001F02D2084600F02A
:102730001FBB70B500F05CF900000089FFF7F6BF21
:102740004FF00040A0F580007047000010B591EAFE
:10275000030F48BF83F0004300F1A681841A71EB98
:10276000030C05D2121943EB0C03001B61EB0C01A7
:102770004FEA1154A4EB135CDFF81CE11EEA430F8F
:1027800018BF9EEA445F00F0748021EA045123EAF6
:102790000E0343F48013DCF1200E32D322FA0CFE38
:1027A00010EB0E0023FA0CFE41EB0E01CCF1200ED3
:1027B00003FA0EFE10EB0E00CCF1200E51F10001D9
:1027C000B1F5801F32D201EB045112FA0EF2BDE8CE
:1027D000104058BF7047401C38BF5FEA420218BF24
:1027E0007047002814BF20F0010041F100014FEABA
:1027F000410313F5001F38BF7047A1F1C04100F03D
:1028000045B9012A43EB0302ACF1200CDCF11F0EA9
:1028100032BF4FF0000E23FA0CF310EB030041EB34
:102820000451B4EB115FD0D0A1EB045101F580113C
:10283000490801EB04515FEA30000ED350F100006B
:1028400038BF12FA0EFE08D1BDE81040C9E7401C9F
:1028500038BF5FEA4202CAD1C3E7BDE810404FEA81
:10286000410313F5001F38BF7047A1F1C04100F0CC
:102870000DB99EEA445F08D011EA5E0FBDE8104032
:1028800004BF01F0004100207047BDE8104070B562
:1028900000F0AEF864FBBE3E0000E0FF70B5DFF86C
:1028A00048C11CEA111E1EBF1CEA13159EEA0C0F3C
:1028B00095EA0C0F00F06F8081EA03044EEAD47EA3
:1028C000AE4421EA4C1123EA4C1341F4801143F445
:1028D0008013AEF17F7EA1FB024CA0FB036536198D
:1028E00055EB0C05A1FB034C4CF10003A0FB021CB3
:1028F00016EB0C06654153F10003094218BF46F080
:10290000010613F4007F0BD14FEA03314FEA053083
:1029100041EA155140EA165034036FF003020AE011
:102920004FEAC3214FEAC52041EA555140EA5650CB
:10293000F4026FF0020202EB2E4201EB025585EA2F
:10294000CE710AD05FEA440C18BF24F0004450F165
:10295000000041F1000120EAD47040F2FE7C6245A3
:1029600000D270BDA84214BF4FF080444FF04044E5
:10297000002E08BF0024BEF1806FA8BFA1F1C041A6
:10298000BDE8704080F2828001F1C04101F0004159
:102990004FF0000070470CEA13159EEA0C0F18BFA9
:1029A00095EA0C0F06D081EA030E4FF000000EF0FE
:1029B000004170BD00F01CF88900013E00F007B82E
:1029C00000F009B84FEA430C5FEA5C5C08D081EA8A
:1029D000030100F05BB84FEA410C5FEA5C5CF6D1A2
:1029E00002494FF0000070470000FF070000F87F29
:1029F0000EF1020E2EF0030E5EF8046B364205D483
:102A0000012A43EB030515F5001F12D8012841EBFD
:102A1000010C1CF5001F0CD80ED14FEAD17C0CEB39
:102A20004C0C0CF1020C15F5001F08BF4CEBD37CCD
:102A300004E04FF0080C01E04FEAD37C0CEB4C05AE
:102A400026FA05F606F00706B6F1040C06D20EEBE0
:102A5000860CBDE870404CF0010C6047DFE80CF0DC
:102A6000090B02024FF00041A1F500214FF00000D8
:102A700070BD19461046012851EB010418BFD4F56A
:102A8000001484BF002001F0004170BD0808A0F5CB
:102A900000114FEA3101704710B591EA030F48BFAA
:102AA00083F000433FF55AAE841A71EB030C07D252
:102AB0008CF0004C121943EB0C03001B61EB0C0172
:102AC0004FEA1154A4EB135CDFF8A4E11EEA430FB4
:102AD00018BF9EEA445F00F0B48021EA045123EA63
:102AE0006E035242C3EB6E0338BF5B1EDCF1200E57
:102AF00025D322FA0CFE10EB0E0043FA0CFE41EB3C
:102B00000E01CCF1200E03FA0EFE10EB0E00CCF1FC
:102B1000200E51F1000129D401EB045112FA0EF2FA
:102B2000BDE8104058BF7047401C1CBFB2F1004FB9
:102B3000704700280CBF491C20F00100704712EBC1
:102B4000020E43EB030218BF4FF0010E4EEA4202A1
:102B5000ACF1200CDCF11E0E56D943FA0CFE10EB42
:102B60000E00CCF11E0E51F1FF31D5D50EF1010E44
:102B700012FA0EFE404141EB010101EB445C5FEAB9
:102B80005C5C10D901EB045110EBDE7038BFBEF174
:102B9000004FBDE8104018BF704700280CBF491C0B
:102BA00020F00100704734D24FEAD42C24F40064A2
:102BB00011F500111BD0B1FA81F20B3AA41AA41E30
:102BC000D2F12003914030FA03F31943904001EB16
:102BD000CC7101EB0451002CBDE81040A8BF704738
:102BE00001F1C04101F000414FF000007047B0FA20
:102BF00080F310FA03F102D1BDE810407047E41AE7
:102C0000173C4805C90AE2E701EB0451BDE8104052
:102C1000704749104FEA300001EB0451BDE8104005
:102C200002E04FF0000170474A0008BF0042F8D0B0
:102C3000B2F5001F28BF704701F000414FF00000BF
:102C400070479EEA445F07D011EA5E0FBDE810406E
:102C500004BF002100207047BDE8104070B5FFF7A9
:102C6000C7FE00BF40DFF63E104683F000417047CC
:102C70000000E0FF43004FEAD30C4FEA3C0C434016
:102C80001FBF40070CF1605113F0FE4F70471CF05E
:102C9000006F03D10CF00041002070470CF000439E
:102CA00043EA507040EACC0010B500F00EF800BFC7
:102CB000000000924FEA0001FFF7E8BE4FF000412C
:102CC000A1F500214FF0000070470EF1020E2EF02A
:102CD000030E5EF8044B244204D44FEA4102B2F1E1
:102CE0007F4F11D84FEA4003B3F17F4F0CD80ED17C
:102CF0004FEAD07C0CEB4C0C0CF1020CB2F17F4F84
:102D000008BF4CEBD17C04E04FF0080C01E04FEA27
:102D1000D17C0CEB4C0324FA03F404F00704B4F167
:102D2000040C06D20EEB840CBDE810404CF0010CF4
:102D30006047DFE80CF0070802024FF00040A0F502
:102D4000800010BD0846420018BFD2F1807288BFD3
:102D500000F0004010BDF1EE100A4FF6FF71C0F216
:102D6000C03120EA010040F04070E1EE100A7047E7
:102D7000FF2141EAD050C0057047FDF709BFFEF7BB
:102D80003DB8000000000000000000000000B33F5C
:102D9000B2BE7D3A00002E40DFCF513800007E40A9
:102DA000BF51FABA00E0A44019DAC3BA00E0C84043
:102DB000C2ED8AB90040EB40CD1F2CBA001006418D
:102DC0002AFFFABA00C01541DFCFD13700D0244125
:102DD0009A97703A0050334189478E3600404141FE
:102DE000E75B9D3800B04E41C00A98B900A05B4136
:102DF000558F943A00306841DA92C0BA004074416D
:102E000062B3C63A0000803F00A0853F00908B3F30
:102E100000C0913F0030983F00F09E3F00F0A53F7A
:102E20000050AD3F0000B53F0000BD3F0060C53F12
:102E30000020CE3F0040D73F00C0E03F00C0EA3F47
:102E40000020F53F000000007D36AC397D3C38396C
:102E5000EBDCF438320A7E39124C26399B6AED39A4
:102E6000A4EE83397F661E39F6398A392B426539DB
:102E7000A48211395B991F39C3EECD39DDE7C6371E
:102E8000A5A22F390000803FC3AA853FC2958B3F82
:102E9000D3C3913FF037983F32F59E3FD7FEA53F11
:102EA0003F58AD3FF304B53FA408BD3F2A67C53F77
:102EB0008C24CE3FFD44D73FDFCCE03FC7C0EA3F84
:102EC0007D25F53F00000000000000003031323366
:102ED000343536373839414243444546403058004E
:102EE0003031323334353637383961626364656680
:102EF00040307800040000080000000000000002DC
:102F00000001000010303132333435363738396142
:102F10006263646566787000303132333435363739
:102F200038394142434445465850000002400000B1
:102F3000000000A00000000005400000000000C8E4
:102F4000000000000C4000000000409C0000000059
:102F5000194000000020BCBE00000000344000000A
:102F6000BFC91B8E00000004B5400000504BCFD0FD
:102F70006607E2CF010000006C4100003E8251AACA
:102F8000DFEEA73401000000D9420000DCB5A0E26A
:102F90003A301F97FFFFFFFFB4450000FD25A0C892
:102FA000E9A3C14FFFFFFFFFFF3F000000000080CB
:102FB00000000000FF3F0000000000800000000053
:102FC0006572726F722068756D3A2025662E2E2EFE
:102FD0000D0A006572726F722074656D703A20255B
:102FE000662E2E2E0D0A006572726F722061697254
:102FF000713A2025662E2E2E0D0A00707269206807
:10300000756D206F75747075743A2025662E2E2E9E
:103010000D0A007072692074656D70206F75747090
:1030200075743A2025662E2E2E0D0A0070726920C6
:1030300061697271206F75747075743A2025662EFF
:103040002E2E0D0A0000000098310008000000201C
:10305000C8000000C401000860320008C800002059
:1030600078060000E00100081C000000430000009A
:10307000F8FFFFFF0C0000000E0000000F00000032
:103080002E0000001001000043000000F8FFFFFFC9
:10309000004040404040404040404141414141406B
:1030A0004040404040404040404040404040404020
:1030B00040050202020202020202020202020202AF
:1030C00002202020202020202020200202020202B4
:1030D000020290909090909010101010101010100C
:1030E0001010101010101010101010100202020218
:1030F000020288888888888808080808080808085C
:103100000808080808080808080808080202020257
:10311000400000000000000000000000000000006F
:10312000000000000000000000000000000000009F
:10313000000000000000000000000000000000008F
:10314000000000000000000000000000000000007F
:10315000000000000000000000000000000000006F
:10316000000000000000000000000000000000005F
:10317000000000000000000000000000000000004F
:10318000000000000000000000000000000000003F
:10319000000000000000000001000000000000002E
:1031A0000000000000C08240000000000000244039
:1031B00000000000008056C0000000000000F0BFCA
:1031C000666666666666F23F295C8FC2F528BC3F7C
:1031D0000AD7A3703D0AC7BF333333333333C33FFA
:1031E0007B14AE47E17A84BF000000000000D03FAE
:1031F000000000000000D0BF9A9999999999B9BF31
:1032000000000000000000C000000000000023409B
:1032100014AE47E17A1400409A9999999999E9BFB7
:10322000CDCCCCCCCCCC1C403333333333331940EE
:10323000000000000000E0BFCDCCCCCCCCCCDC3F0B
:10324000CDCCCCCCCCCCEC3F0000000000003E400C
:103250000000000000C055400000000000805B40FE
:04000005080002D518
:00000001FF
